{
  "_format": "hh-sol-artifact-1",
  "contractName": "Voting",
  "sourceName": "contracts/Voting.sol",
  "abi": [
    {
      "inputs": [],
      "name": "candidate1",
      "outputs": [
        {
          "internalType": "string",
          "name": "",
          "type": "string"
        }
      ],
      "stateMutability": "view",
      "type": "function"
    },
    {
      "inputs": [],
      "name": "candidate2",
      "outputs": [
        {
          "internalType": "string",
          "name": "",
          "type": "string"
        }
      ],
      "stateMutability": "view",
      "type": "function"
    },
    {
      "inputs": [],
      "name": "getVotes",
      "outputs": [
        {
          "internalType": "uint256",
          "name": "",
          "type": "uint256"
        },
        {
          "internalType": "uint256",
          "name": "",
          "type": "uint256"
        }
      ],
      "stateMutability": "view",
      "type": "function"
    },
    {
      "inputs": [
        {
          "internalType": "address",
          "name": "",
          "type": "address"
        }
      ],
      "name": "hasVoted",
      "outputs": [
        {
          "internalType": "bool",
          "name": "",
          "type": "bool"
        }
      ],
      "stateMutability": "view",
      "type": "function"
    },
    {
      "inputs": [
        {
          "internalType": "uint256",
          "name": "_candidate",
          "type": "uint256"
        }
      ],
      "name": "vote",
      "outputs": [],
      "stateMutability": "nonpayable",
      "type": "function"
    },
    {
      "inputs": [],
      "name": "votesCandidate1",
      "outputs": [
        {
          "internalType": "uint256",
          "name": "",
          "type": "uint256"
        }
      ],
      "stateMutability": "view",
      "type": "function"
    },
    {
      "inputs": [],
      "name": "votesCandidate2",
      "outputs": [
        {
          "internalType": "uint256",
          "name": "",
          "type": "uint256"
        }
      ],
      "stateMutability": "view",
      "type": "function"
    }
  ],
  "bytecode": "0x60806040526040518060400160405280600681526020017f4c6f6b65736800000000000000000000000000000000000000000000000000008152506000908161004891906102f0565b506040518060400160405280600781526020017f56696c616e7368000000000000000000000000000000000000000000000000008152506001908161008d91906102f0565b5034801561009a57600080fd5b506103c2565b600081519050919050565b7f4e487b7100000000000000000000000000000000000000000000000000000000600052604160045260246000fd5b7f4e487b7100000000000000000000000000000000000000000000000000000000600052602260045260246000fd5b6000600282049050600182168061012157607f821691505b602082108103610134576101336100da565b5b50919050565b60008190508160005260206000209050919050565b60006020601f8301049050919050565b600082821b905092915050565b60006008830261019c7fffffffffffffffffffffffffffffffffffffffffffffffffffffffffffffffff8261015f565b6101a6868361015f565b95508019841693508086168417925050509392505050565b6000819050919050565b6000819050919050565b60006101ed6101e86101e3846101be565b6101c8565b6101be565b9050919050565b6000819050919050565b610207836101d2565b61021b610213826101f4565b84845461016c565b825550505050565b600090565b610230610223565b61023b8184846101fe565b505050565b5b8181101561025f57610254600082610228565b600181019050610241565b5050565b601f8211156102a4576102758161013a565b61027e8461014f565b8101602085101561028d578190505b6102a16102998561014f565b830182610240565b50505b505050565b600082821c905092915050565b60006102c7600019846008026102a9565b1980831691505092915050565b60006102e083836102b6565b9150826002028217905092915050565b6102f9826100a0565b67ffffffffffffffff811115610312576103116100ab565b5b61031c8254610109565b610327828285610263565b600060209050601f83116001811461035a5760008415610348578287015190505b61035285826102d4565b8655506103ba565b601f1984166103688661013a565b60005b828110156103905784890151825560018201915060208501945060208101905061036b565b868310156103ad57848901516103a9601f8916826102b6565b8355505b6001600288020188555050505b505050505050565b61083f806103d16000396000f3fe608060405234801561001057600080fd5b506004361061007d5760003560e01c80630dc960151161005b5780630dc96015146100ec5780634b7632161461010b5780635b57014c14610129578063a54532ee146101475761007d565b80630121b93f1461008257806301243fce1461009e57806309eef43e146100bc575b600080fd5b61009c60048036038101906100979190610467565b610165565b005b6100a66102d3565b6040516100b39190610524565b60405180910390f35b6100d660048036038101906100d191906105a4565b610361565b6040516100e391906105ec565b60405180910390f35b6100f4610381565b604051610102929190610616565b60405180910390f35b610113610392565b604051610120919061063f565b60405180910390f35b610131610398565b60405161013e9190610524565b60405180910390f35b61014f610426565b60405161015c919061063f565b60405180910390f35b600460003373ffffffffffffffffffffffffffffffffffffffff1673ffffffffffffffffffffffffffffffffffffffff16815260200190815260200160002060009054906101000a900460ff16156101f2576040517f08c379a00000000000000000000000000000000000000000000000000000000081526004016101e9906106a6565b60405180910390fd5b60018103610217576002600081548092919061020d906106f5565b9190505550610278565b6002810361023c5760036000815480929190610232906106f5565b9190505550610277565b6040517f08c379a000000000000000000000000000000000000000000000000000000000815260040161026e90610789565b60405180910390fd5b5b6001600460003373ffffffffffffffffffffffffffffffffffffffff1673ffffffffffffffffffffffffffffffffffffffff16815260200190815260200160002060006101000a81548160ff02191690831515021790555050565b600080546102e0906107d8565b80601f016020809104026020016040519081016040528092919081815260200182805461030c906107d8565b80156103595780601f1061032e57610100808354040283529160200191610359565b820191906000526020600020905b81548152906001019060200180831161033c57829003601f168201915b505050505081565b60046020528060005260406000206000915054906101000a900460ff1681565b600080600254600354915091509091565b60025481565b600180546103a5906107d8565b80601f01602080910402602001604051908101604052809291908181526020018280546103d1906107d8565b801561041e5780601f106103f35761010080835404028352916020019161041e565b820191906000526020600020905b81548152906001019060200180831161040157829003601f168201915b505050505081565b60035481565b600080fd5b6000819050919050565b61044481610431565b811461044f57600080fd5b50565b6000813590506104618161043b565b92915050565b60006020828403121561047d5761047c61042c565b5b600061048b84828501610452565b91505092915050565b600081519050919050565b600082825260208201905092915050565b60005b838110156104ce5780820151818401526020810190506104b3565b60008484015250505050565b6000601f19601f8301169050919050565b60006104f682610494565b610500818561049f565b93506105108185602086016104b0565b610519816104da565b840191505092915050565b6000602082019050818103600083015261053e81846104eb565b905092915050565b600073ffffffffffffffffffffffffffffffffffffffff82169050919050565b600061057182610546565b9050919050565b61058181610566565b811461058c57600080fd5b50565b60008135905061059e81610578565b92915050565b6000602082840312156105ba576105b961042c565b5b60006105c88482850161058f565b91505092915050565b60008115159050919050565b6105e6816105d1565b82525050565b600060208201905061060160008301846105dd565b92915050565b61061081610431565b82525050565b600060408201905061062b6000830185610607565b6106386020830184610607565b9392505050565b60006020820190506106546000830184610607565b92915050565b7f596f75206861766520616c726561647920766f74656421000000000000000000600082015250565b600061069060178361049f565b915061069b8261065a565b602082019050919050565b600060208201905081810360008301526106bf81610683565b9050919050565b7f4e487b7100000000000000000000000000000000000000000000000000000000600052601160045260246000fd5b600061070082610431565b91507fffffffffffffffffffffffffffffffffffffffffffffffffffffffffffffffff8203610732576107316106c6565b5b600182019050919050565b7f496e76616c69642063616e6469646174652073656c65637465642e0000000000600082015250565b6000610773601b8361049f565b915061077e8261073d565b602082019050919050565b600060208201905081810360008301526107a281610766565b9050919050565b7f4e487b7100000000000000000000000000000000000000000000000000000000600052602260045260246000fd5b600060028204905060018216806107f057607f821691505b602082108103610803576108026107a9565b5b5091905056fea2646970667358221220f5a991c2535194d3633aeb401ff2c01869ddf362e033f70a0f670e8f1d641a9e64736f6c634300081c0033",
  "linkReferences": {},
  "deployedLinkReferences": {}
}